{
  "contractName": "Voting",
  "abi": [
    {
      "inputs": [
        {
          "internalType": "uint256[]",
          "name": "candidateIds",
          "type": "uint256[]"
        },
        {
          "internalType": "uint256",
          "name": "_startTime",
          "type": "uint256"
        },
        {
          "internalType": "uint256",
          "name": "_endTime",
          "type": "uint256"
        }
      ],
      "stateMutability": "nonpayable",
      "type": "constructor"
    },
    {
      "inputs": [
        {
          "internalType": "uint256",
          "name": "",
          "type": "uint256"
        }
      ],
      "name": "candidateVotes",
      "outputs": [
        {
          "internalType": "uint256",
          "name": "",
          "type": "uint256"
        }
      ],
      "stateMutability": "view",
      "type": "function",
      "constant": true
    },
    {
      "inputs": [],
      "name": "endTime",
      "outputs": [
        {
          "internalType": "uint256",
          "name": "",
          "type": "uint256"
        }
      ],
      "stateMutability": "view",
      "type": "function",
      "constant": true
    },
    {
      "inputs": [],
      "name": "startTime",
      "outputs": [
        {
          "internalType": "uint256",
          "name": "",
          "type": "uint256"
        }
      ],
      "stateMutability": "view",
      "type": "function",
      "constant": true
    },
    {
      "inputs": [
        {
          "internalType": "uint256",
          "name": "",
          "type": "uint256"
        }
      ],
      "name": "validCandidates",
      "outputs": [
        {
          "internalType": "bool",
          "name": "",
          "type": "bool"
        }
      ],
      "stateMutability": "view",
      "type": "function",
      "constant": true
    },
    {
      "inputs": [
        {
          "internalType": "uint256",
          "name": "",
          "type": "uint256"
        }
      ],
      "name": "voters",
      "outputs": [
        {
          "internalType": "address",
          "name": "",
          "type": "address"
        }
      ],
      "stateMutability": "view",
      "type": "function",
      "constant": true
    },
    {
      "inputs": [
        {
          "internalType": "address",
          "name": "",
          "type": "address"
        }
      ],
      "name": "votes",
      "outputs": [
        {
          "internalType": "uint256",
          "name": "",
          "type": "uint256"
        }
      ],
      "stateMutability": "view",
      "type": "function",
      "constant": true
    },
    {
      "inputs": [
        {
          "internalType": "uint256",
          "name": "candidate",
          "type": "uint256"
        }
      ],
      "name": "vote",
      "outputs": [],
      "stateMutability": "nonpayable",
      "type": "function"
    },
    {
      "inputs": [],
      "name": "getVotes",
      "outputs": [
        {
          "components": [
            {
              "internalType": "address",
              "name": "voter",
              "type": "address"
            },
            {
              "internalType": "uint256",
              "name": "candidate",
              "type": "uint256"
            }
          ],
          "internalType": "struct Voting.Vote[]",
          "name": "",
          "type": "tuple[]"
        }
      ],
      "stateMutability": "view",
      "type": "function",
      "constant": true
    },
    {
      "inputs": [
        {
          "internalType": "uint256",
          "name": "candidate",
          "type": "uint256"
        }
      ],
      "name": "getCandidateVotes",
      "outputs": [
        {
          "internalType": "uint256",
          "name": "",
          "type": "uint256"
        }
      ],
      "stateMutability": "view",
      "type": "function",
      "constant": true
    }
  ],
  "bytecode": "0x60806040523480156200001157600080fd5b506040516200102c3803806200102c8339818101604052810190620000379190620001dd565b8082106200007c576040517f08c379a00000000000000000000000000000000000000000000000000000000081526004016200007390620002b4565b60405180910390fd5b816004819055508060058190555060005b83518110156200011a57600160026000868481518110620000d7577f4e487b7100000000000000000000000000000000000000000000000000000000600052603260045260246000fd5b6020026020010151815260200190815260200160002060006101000a81548160ff0219169083151502179055508080620001119062000354565b9150506200008d565b505050506200041a565b60006200013b62000135846200030a565b620002d6565b905080838252602082019050828560208602820111156200015b57600080fd5b60005b858110156200018f5781620001748882620001c6565b8452602084019350602083019250506001810190506200015e565b5050509392505050565b600082601f830112620001ab57600080fd5b8151620001bd84826020860162000124565b91505092915050565b600081519050620001d78162000400565b92915050565b600080600060608486031215620001f357600080fd5b600084015167ffffffffffffffff8111156200020e57600080fd5b6200021c8682870162000199565b93505060206200022f86828701620001c6565b92505060406200024286828701620001c6565b9150509250925092565b60006200025b60228362000339565b91507f53746172742074696d65206d757374206265206265666f726520656e6420746960008301527f6d650000000000000000000000000000000000000000000000000000000000006020830152604082019050919050565b60006020820190508181036000830152620002cf816200024c565b9050919050565b6000604051905081810181811067ffffffffffffffff821117156200030057620002ff620003d1565b5b8060405250919050565b600067ffffffffffffffff821115620003285762000327620003d1565b5b602082029050602081019050919050565b600082825260208201905092915050565b6000819050919050565b600062000361826200034a565b91507fffffffffffffffffffffffffffffffffffffffffffffffffffffffffffffffff821415620003975762000396620003a2565b5b600182019050919050565b7f4e487b7100000000000000000000000000000000000000000000000000000000600052601160045260246000fd5b7f4e487b7100000000000000000000000000000000000000000000000000000000600052604160045260246000fd5b6200040b816200034a565b81146200041757600080fd5b50565b610c02806200042a6000396000f3fe608060405234801561001057600080fd5b50600436106100935760003560e01c8063866163c011610066578063866163c01461010e578063b0d188141461013e578063d8bff5a51461016e578063da58c7d91461019e578063f49e323e146101ce57610093565b80630121b93f146100985780630dc96015146100b45780633197cbb6146100d257806378e97925146100f0575b600080fd5b6100b260048036038101906100ad9190610798565b6101fe565b005b6100bc610438565b6040516100c99190610972565b60405180910390f35b6100da61065d565b6040516100e791906109ef565b60405180910390f35b6100f8610663565b60405161010591906109ef565b60405180910390f35b61012860048036038101906101239190610798565b610669565b60405161013591906109ef565b60405180910390f35b61015860048036038101906101539190610798565b610686565b6040516101659190610994565b60405180910390f35b6101886004803603810190610183919061076f565b6106a6565b60405161019591906109ef565b60405180910390f35b6101b860048036038101906101b39190610798565b6106be565b6040516101c59190610957565b60405180910390f35b6101e860048036038101906101e39190610798565b6106fd565b6040516101f591906109ef565b60405180910390f35b600454421015801561021257506005544211155b610251576040517f08c379a0000000000000000000000000000000000000000000000000000000008152600401610248906109cf565b60405180910390fd5b6002600082815260200190815260200160002060009054906101000a900460ff166102b1576040517f08c379a00000000000000000000000000000000000000000000000000000000081526004016102a8906109af565b60405180910390fd5b60008060003373ffffffffffffffffffffffffffffffffffffffff1673ffffffffffffffffffffffffffffffffffffffff16815260200190815260200160002054146103645760018060008060003373ffffffffffffffffffffffffffffffffffffffff1673ffffffffffffffffffffffffffffffffffffffff16815260200190815260200160002054815260200190815260200160002060008282546103589190610aaa565b925050819055506103c8565b6003339080600181540180825580915050600190039060005260206000200160009091909190916101000a81548173ffffffffffffffffffffffffffffffffffffffff021916908373ffffffffffffffffffffffffffffffffffffffff1602179055505b806000803373ffffffffffffffffffffffffffffffffffffffff1673ffffffffffffffffffffffffffffffffffffffff168152602001908152602001600020819055506001806000838152602001908152602001600020600082825461042e9190610a54565b9250508190555050565b6060600060038054905067ffffffffffffffff811115610481577f4e487b7100000000000000000000000000000000000000000000000000000000600052604160045260246000fd5b6040519080825280602002602001820160405280156104ba57816020015b6104a7610715565b81526020019060019003908161049f5790505b50905060005b60038054905081101561065557604051806040016040528060038381548110610512577f4e487b7100000000000000000000000000000000000000000000000000000000600052603260045260246000fd5b9060005260206000200160009054906101000a900473ffffffffffffffffffffffffffffffffffffffff1673ffffffffffffffffffffffffffffffffffffffff16815260200160008060038581548110610595577f4e487b7100000000000000000000000000000000000000000000000000000000600052603260045260246000fd5b9060005260206000200160009054906101000a900473ffffffffffffffffffffffffffffffffffffffff1673ffffffffffffffffffffffffffffffffffffffff1673ffffffffffffffffffffffffffffffffffffffff16815260200190815260200160002054815250828281518110610637577f4e487b7100000000000000000000000000000000000000000000000000000000600052603260045260246000fd5b6020026020010181905250808061064d90610b26565b9150506104c0565b508091505090565b60055481565b60045481565b600060016000838152602001908152602001600020549050919050565b60026020528060005260406000206000915054906101000a900460ff1681565b60006020528060005260406000206000915090505481565b600381815481106106ce57600080fd5b906000526020600020016000915054906101000a900473ffffffffffffffffffffffffffffffffffffffff1681565b60016020528060005260406000206000915090505481565b6040518060400160405280600073ffffffffffffffffffffffffffffffffffffffff168152602001600081525090565b60008135905061075481610b9e565b92915050565b60008135905061076981610bb5565b92915050565b60006020828403121561078157600080fd5b600061078f84828501610745565b91505092915050565b6000602082840312156107aa57600080fd5b60006107b88482850161075a565b91505092915050565b60006107cd838361090a565b60408301905092915050565b6107e281610ade565b82525050565b6107f181610ade565b82525050565b600061080282610a1a565b61080c8185610a32565b935061081783610a0a565b8060005b8381101561084857815161082f88826107c1565b975061083a83610a25565b92505060018101905061081b565b5085935050505092915050565b61085e81610af0565b82525050565b6000610871601183610a43565b91507f496e76616c69642063616e6469646174650000000000000000000000000000006000830152602082019050919050565b60006108b1602f83610a43565b91507f566f74696e67206973206e6f7420616c6c6f776564206f75747369646520746860008301527f6520766f74696e6720706572696f6400000000000000000000000000000000006020830152604082019050919050565b60408201600082015161092060008501826107d9565b5060208201516109336020850182610939565b50505050565b61094281610b1c565b82525050565b61095181610b1c565b82525050565b600060208201905061096c60008301846107e8565b92915050565b6000602082019050818103600083015261098c81846107f7565b905092915050565b60006020820190506109a96000830184610855565b92915050565b600060208201905081810360008301526109c881610864565b9050919050565b600060208201905081810360008301526109e8816108a4565b9050919050565b6000602082019050610a046000830184610948565b92915050565b6000819050602082019050919050565b600081519050919050565b6000602082019050919050565b600082825260208201905092915050565b600082825260208201905092915050565b6000610a5f82610b1c565b9150610a6a83610b1c565b9250827fffffffffffffffffffffffffffffffffffffffffffffffffffffffffffffffff03821115610a9f57610a9e610b6f565b5b828201905092915050565b6000610ab582610b1c565b9150610ac083610b1c565b925082821015610ad357610ad2610b6f565b5b828203905092915050565b6000610ae982610afc565b9050919050565b60008115159050919050565b600073ffffffffffffffffffffffffffffffffffffffff82169050919050565b6000819050919050565b6000610b3182610b1c565b91507fffffffffffffffffffffffffffffffffffffffffffffffffffffffffffffffff821415610b6457610b63610b6f565b5b600182019050919050565b7f4e487b7100000000000000000000000000000000000000000000000000000000600052601160045260246000fd5b610ba781610ade565b8114610bb257600080fd5b50565b610bbe81610b1c565b8114610bc957600080fd5b5056fea26469706673582212201fef0896ea646a579297d178e25b03688c2b65c7a992bda7b826a68ed309666964736f6c63430008000033",
  "immutableReferences": {},
  "source": "pragma solidity ^0.8.0;\r\n\r\ncontract Voting {\r\n    struct Vote {\r\n        address voter;\r\n        uint candidate;\r\n    }\r\n\r\n    mapping(address => uint) public votes; // Mapping  lu tr phiu bu ca mi ngi dng\r\n    mapping(uint => uint) public candidateVotes; // Mapping  lu tr s phiu ca tng ng vin\r\n    mapping(uint => bool) public validCandidates; // Mapping  lu tr cc ng c vin hp l\r\n    address[] public voters; // Danh sch cc a ch  b phiu\r\n    uint public startTime; // Thi gian bt u cuc tranh c\r\n    uint public endTime; // Thi gian kt thc cuc tranh c\r\n\r\n    constructor(uint[] memory candidateIds, uint _startTime, uint _endTime) {\r\n        require(_startTime < _endTime, \"Start time must be before end time\");\r\n        startTime = _startTime;\r\n        endTime = _endTime;\r\n        for (uint i = 0; i < candidateIds.length; i++) {\r\n            validCandidates[candidateIds[i]] = true;\r\n        }\r\n    }\r\n\r\n    modifier onlyDuringVotingPeriod() {\r\n        require(block.timestamp >= startTime && block.timestamp <= endTime, \"Voting is not allowed outside the voting period\");\r\n        _;\r\n    }\r\n\r\n    function vote(uint candidate) public onlyDuringVotingPeriod {\r\n        require(validCandidates[candidate], \"Invalid candidate\");\r\n\r\n        if (votes[msg.sender] != 0) {\r\n            // Nu ngi dng  b phiu trc , gim s phiu ca ng vin c\r\n            candidateVotes[votes[msg.sender]] -= 1;\r\n        } else {\r\n            // Nu y l ln u tin ngi dng b phiu, thm a ch ca h vo danh sch voters\r\n            voters.push(msg.sender);\r\n        }\r\n\r\n        // Cp nht phiu bu ca ngi dng\r\n        votes[msg.sender] = candidate;\r\n        candidateVotes[candidate] += 1;\r\n    }\r\n\r\n    function getVotes() public view returns (Vote[] memory) {\r\n        Vote[] memory allVotes = new Vote[](voters.length);\r\n        for (uint i = 0; i < voters.length; i++) {\r\n            allVotes[i] = Vote(voters[i], votes[voters[i]]);\r\n        }\r\n        return allVotes;\r\n    }\r\n\r\n    function getCandidateVotes(uint candidate) public view returns (uint) {\r\n        return candidateVotes[candidate];\r\n    }\r\n}",
  "sourcePath": "D:\\study\\university\\nm 4\\ki 2\\blockchain\\voting_project\\backend\\contracts\\voting.sol",
  "compiler": {
    "name": "solc",
    "version": "0.8.0+commit.c7dfd78e.Emscripten.clang"
  },
  "schemaVersion": "3.4.16",
  "updatedAt": "2025-01-03T17:40:59.364Z",
  "networkType": "ethereum",
  "devdoc": {
    "kind": "dev",
    "methods": {},
    "version": 1
  },
  "userdoc": {
    "kind": "user",
    "methods": {},
    "version": 1
  }
}