{
  "contractName": "Voting",
  "abi": [
    {
      "inputs": [
        {
          "internalType": "uint256[]",
          "name": "candidateIds",
          "type": "uint256[]"
        },
        {
          "internalType": "uint256",
          "name": "_startTime",
          "type": "uint256"
        },
        {
          "internalType": "uint256",
          "name": "_endTime",
          "type": "uint256"
        }
      ],
      "stateMutability": "nonpayable",
      "type": "constructor"
    },
    {
      "anonymous": false,
      "inputs": [
        {
          "indexed": true,
          "internalType": "uint256",
          "name": "userId",
          "type": "uint256"
        },
        {
          "indexed": true,
          "internalType": "uint256",
          "name": "candidate",
          "type": "uint256"
        }
      ],
      "name": "Voted",
      "type": "event"
    },
    {
      "inputs": [
        {
          "internalType": "uint256",
          "name": "",
          "type": "uint256"
        }
      ],
      "name": "candidateVotes",
      "outputs": [
        {
          "internalType": "uint256",
          "name": "",
          "type": "uint256"
        }
      ],
      "stateMutability": "view",
      "type": "function"
    },
    {
      "inputs": [],
      "name": "endTime",
      "outputs": [
        {
          "internalType": "uint256",
          "name": "",
          "type": "uint256"
        }
      ],
      "stateMutability": "view",
      "type": "function"
    },
    {
      "inputs": [],
      "name": "startTime",
      "outputs": [
        {
          "internalType": "uint256",
          "name": "",
          "type": "uint256"
        }
      ],
      "stateMutability": "view",
      "type": "function"
    },
    {
      "inputs": [
        {
          "internalType": "uint256",
          "name": "",
          "type": "uint256"
        }
      ],
      "name": "userVotes",
      "outputs": [
        {
          "internalType": "uint256",
          "name": "",
          "type": "uint256"
        }
      ],
      "stateMutability": "view",
      "type": "function"
    },
    {
      "inputs": [
        {
          "internalType": "uint256",
          "name": "",
          "type": "uint256"
        }
      ],
      "name": "validCandidates",
      "outputs": [
        {
          "internalType": "bool",
          "name": "",
          "type": "bool"
        }
      ],
      "stateMutability": "view",
      "type": "function"
    },
    {
      "inputs": [
        {
          "internalType": "uint256",
          "name": "candidateId",
          "type": "uint256"
        },
        {
          "internalType": "uint256",
          "name": "userId",
          "type": "uint256"
        }
      ],
      "name": "vote",
      "outputs": [],
      "stateMutability": "nonpayable",
      "type": "function"
    },
    {
      "inputs": [
        {
          "internalType": "uint256",
          "name": "userId",
          "type": "uint256"
        }
      ],
      "name": "hasVoted",
      "outputs": [
        {
          "internalType": "bool",
          "name": "",
          "type": "bool"
        }
      ],
      "stateMutability": "view",
      "type": "function"
    },
    {
      "inputs": [],
      "name": "getVotes",
      "outputs": [
        {
          "components": [
            {
              "internalType": "uint256",
              "name": "userId",
              "type": "uint256"
            },
            {
              "internalType": "uint256",
              "name": "candidate",
              "type": "uint256"
            }
          ],
          "internalType": "struct Voting.Vote[]",
          "name": "",
          "type": "tuple[]"
        }
      ],
      "stateMutability": "view",
      "type": "function"
    },
    {
      "inputs": [
        {
          "internalType": "uint256",
          "name": "candidateId",
          "type": "uint256"
        }
      ],
      "name": "getCandidateVotes",
      "outputs": [
        {
          "internalType": "uint256",
          "name": "",
          "type": "uint256"
        }
      ],
      "stateMutability": "view",
      "type": "function"
    }
  ],
  "bytecode": "0x60806040523480156200001157600080fd5b5060405162000b8838038062000b888339818101604052810190620000379190620001f1565b816003819055508060048190555060005b83518110156200012e57600080600086848151811062000091577f4e487b7100000000000000000000000000000000000000000000000000000000600052603260045260246000fd5b6020026020010151815260200190815260200160002081905550600160026000868481518110620000eb577f4e487b7100000000000000000000000000000000000000000000000000000000600052603260045260246000fd5b6020026020010151815260200190815260200160002060006101000a81548160ff02191690831515021790555080806200012590620002cd565b91505062000048565b5050505062000393565b60006200014f620001498462000294565b62000260565b905080838252602082019050828560208602820111156200016f57600080fd5b60005b85811015620001a35781620001888882620001da565b84526020840193506020830192505060018101905062000172565b5050509392505050565b600082601f830112620001bf57600080fd5b8151620001d184826020860162000138565b91505092915050565b600081519050620001eb8162000379565b92915050565b6000806000606084860312156200020757600080fd5b600084015167ffffffffffffffff8111156200022257600080fd5b6200023086828701620001ad565b93505060206200024386828701620001da565b92505060406200025686828701620001da565b9150509250925092565b6000604051905081810181811067ffffffffffffffff821117156200028a57620002896200034a565b5b8060405250919050565b600067ffffffffffffffff821115620002b257620002b16200034a565b5b602082029050602081019050919050565b6000819050919050565b6000620002da82620002c3565b91507fffffffffffffffffffffffffffffffffffffffffffffffffffffffffffffffff82141562000310576200030f6200031b565b5b600182019050919050565b7f4e487b7100000000000000000000000000000000000000000000000000000000600052601160045260246000fd5b7f4e487b7100000000000000000000000000000000000000000000000000000000600052604160045260246000fd5b6200038481620002c3565b81146200039057600080fd5b50565b6107e580620003a36000396000f3fe608060405234801561001057600080fd5b50600436106100935760003560e01c8063866163c011610066578063866163c014610122578063b0d1881414610152578063b384abef14610182578063ecca031f1461019e578063f49e323e146101ce57610093565b80630dc96015146100985780633197cbb6146100b65780634eebe1cd146100d457806378e9792514610104575b600080fd5b6100a06101fe565b6040516100ad91906105e7565b60405180910390f35b6100be610203565b6040516100cb9190610664565b60405180910390f35b6100ee60048036038101906100e99190610430565b610209565b6040516100fb9190610664565b60405180910390f35b61010c610221565b6040516101199190610664565b60405180910390f35b61013c60048036038101906101379190610430565b610227565b6040516101499190610664565b60405180910390f35b61016c60048036038101906101679190610430565b610243565b6040516101799190610609565b60405180910390f35b61019c60048036038101906101979190610459565b610263565b005b6101b860048036038101906101b39190610430565b6103e3565b6040516101c59190610609565b60405180910390f35b6101e860048036038101906101e39190610430565b610403565b6040516101f59190610664565b60405180910390f35b606090565b60045481565b60016020528060005260406000206000915090505481565b60035481565b6000806000838152602001908152602001600020549050919050565b60026020528060005260406000206000915054906101000a900460ff1681565b600354421015801561027757506004544211155b6102b6576040517f08c379a00000000000000000000000000000000000000000000000000000000081526004016102ad90610644565b60405180910390fd5b6002600083815260200190815260200160002060009054906101000a900460ff16610316576040517f08c379a000000000000000000000000000000000000000000000000000000000815260040161030d90610624565b60405180910390fd5b600060016000838152602001908152602001600020541461036f576001600080600160008581526020019081526020016000205481526020019081526020016000206000828254610367919061071f565b925050819055505b816001600083815260200190815260200160002081905550600160008084815260200190815260200160002060008282546103aa91906106c9565b9250508190555081817f84a5508ca0d85b42a876e75a9126f3ae7b43617ce60b170bf8805d34630bc65460405160405180910390a35050565b600080600160008481526020019081526020016000205414159050919050565b60006020528060005260406000206000915090505481565b60008135905061042a81610798565b92915050565b60006020828403121561044257600080fd5b60006104508482850161041b565b91505092915050565b6000806040838503121561046c57600080fd5b600061047a8582860161041b565b925050602061048b8582860161041b565b9150509250929050565b60006104a1838361059a565b60408301905092915050565b60006104b88261068f565b6104c281856106a7565b93506104cd8361067f565b8060005b838110156104fe5781516104e58882610495565b97506104f08361069a565b9250506001810190506104d1565b5085935050505092915050565b61051481610753565b82525050565b60006105276011836106b8565b91507f496e76616c69642063616e6469646174650000000000000000000000000000006000830152602082019050919050565b60006105676014836106b8565b91507f566f74696e67206973206e6f74206163746976650000000000000000000000006000830152602082019050919050565b6040820160008201516105b060008501826105c9565b5060208201516105c360208501826105c9565b50505050565b6105d28161075f565b82525050565b6105e18161075f565b82525050565b6000602082019050818103600083015261060181846104ad565b905092915050565b600060208201905061061e600083018461050b565b92915050565b6000602082019050818103600083015261063d8161051a565b9050919050565b6000602082019050818103600083015261065d8161055a565b9050919050565b600060208201905061067960008301846105d8565b92915050565b6000819050602082019050919050565b600081519050919050565b6000602082019050919050565b600082825260208201905092915050565b600082825260208201905092915050565b60006106d48261075f565b91506106df8361075f565b9250827fffffffffffffffffffffffffffffffffffffffffffffffffffffffffffffffff0382111561071457610713610769565b5b828201905092915050565b600061072a8261075f565b91506107358361075f565b92508282101561074857610747610769565b5b828203905092915050565b60008115159050919050565b6000819050919050565b7f4e487b7100000000000000000000000000000000000000000000000000000000600052601160045260246000fd5b6107a18161075f565b81146107ac57600080fd5b5056fea2646970667358221220651dba3171e9b4a6108933323abcba49e2c8889b063107ca6b503742a08f510b64736f6c63430008000033",
  "immutableReferences": {},
  "source": "// SPDX-License-Identifier: MIT\r\npragma solidity ^0.8.0;\r\n\r\ncontract Voting {\r\n    struct Vote {\r\n        uint userId;\r\n        uint candidate;\r\n    }\r\n\r\n    mapping(uint => uint) public candidateVotes;\r\n    mapping(uint => uint) public userVotes; // Lu tr phiu bu hin ti ca ngi dng\r\n    mapping(uint => bool) public validCandidates;\r\n    uint public startTime;\r\n    uint public endTime;\r\n\r\n    event Voted(uint indexed userId, uint indexed candidate);\r\n\r\n    constructor(uint[] memory candidateIds, uint _startTime, uint _endTime) {\r\n        startTime = _startTime;\r\n        endTime = _endTime;\r\n\r\n        for (uint i = 0; i < candidateIds.length; i++) {\r\n            candidateVotes[candidateIds[i]] = 0;\r\n            validCandidates[candidateIds[i]] = true;\r\n        }\r\n    }\r\n\r\n    modifier onlyDuringVotingPeriod() {\r\n        require(block.timestamp >= startTime && block.timestamp <= endTime, \"Voting is not active\");\r\n        _;\r\n    }\r\n\r\n    function vote(uint candidateId, uint userId) public onlyDuringVotingPeriod {\r\n        require(validCandidates[candidateId], \"Invalid candidate\");\r\n\r\n        // Nu ngi dng  b phiu trc , gim s phiu ca ng c vin trc \r\n        if (userVotes[userId] != 0) {\r\n            candidateVotes[userVotes[userId]] -= 1;\r\n        }\r\n\r\n        // Cp nht phiu bu ca ngi dng\r\n        userVotes[userId] = candidateId;\r\n        candidateVotes[candidateId] += 1;\r\n\r\n        emit Voted(userId, candidateId);\r\n    }\r\n\r\n    function hasVoted(uint userId) public view returns (bool) {\r\n        return userVotes[userId] != 0;\r\n    }\r\n\r\n    function getVotes() public view returns (Vote[] memory) {\r\n        // Implement logic to return all votes\r\n    }\r\n\r\n    function getCandidateVotes(uint candidateId) public view returns (uint) {\r\n        return candidateVotes[candidateId];\r\n    }\r\n}",
  "sourcePath": "D:\\study\\university\\nm 4\\ki 2\\blockchain\\voting_project\\backend\\contracts\\voting.sol",
  "compiler": {
    "name": "solc",
    "version": "0.8.0+commit.c7dfd78e.Emscripten.clang"
  },
  "schemaVersion": "3.4.16",
  "updatedAt": "2025-01-09T10:11:27.700Z",
  "devdoc": {
    "kind": "dev",
    "methods": {},
    "version": 1
  },
  "userdoc": {
    "kind": "user",
    "methods": {},
    "version": 1
  }
}